{
  "contractName": "ContraCoinCrowdsale",
  "abi": [
    {
      "constant": true,
      "inputs": [],
      "name": "hasClosed",
      "outputs": [
        {
          "name": "",
          "type": "bool"
        }
      ],
      "payable": false,
      "stateMutability": "view",
      "type": "function"
    },
    {
      "constant": true,
      "inputs": [],
      "name": "rate",
      "outputs": [
        {
          "name": "",
          "type": "uint256"
        }
      ],
      "payable": false,
      "stateMutability": "view",
      "type": "function"
    },
    {
      "constant": true,
      "inputs": [],
      "name": "cap",
      "outputs": [
        {
          "name": "",
          "type": "uint256"
        }
      ],
      "payable": false,
      "stateMutability": "view",
      "type": "function"
    },
    {
      "constant": true,
      "inputs": [],
      "name": "goal",
      "outputs": [
        {
          "name": "",
          "type": "uint256"
        }
      ],
      "payable": false,
      "stateMutability": "view",
      "type": "function"
    },
    {
      "constant": true,
      "inputs": [],
      "name": "weiRaised",
      "outputs": [
        {
          "name": "",
          "type": "uint256"
        }
      ],
      "payable": false,
      "stateMutability": "view",
      "type": "function"
    },
    {
      "constant": true,
      "inputs": [
        {
          "name": "",
          "type": "address"
        }
      ],
      "name": "contributions",
      "outputs": [
        {
          "name": "",
          "type": "uint256"
        }
      ],
      "payable": false,
      "stateMutability": "view",
      "type": "function"
    },
    {
      "constant": true,
      "inputs": [],
      "name": "closingTime",
      "outputs": [
        {
          "name": "",
          "type": "uint256"
        }
      ],
      "payable": false,
      "stateMutability": "view",
      "type": "function"
    },
    {
      "constant": false,
      "inputs": [],
      "name": "finalize",
      "outputs": [],
      "payable": false,
      "stateMutability": "nonpayable",
      "type": "function"
    },
    {
      "constant": true,
      "inputs": [],
      "name": "capReached",
      "outputs": [
        {
          "name": "",
          "type": "bool"
        }
      ],
      "payable": false,
      "stateMutability": "view",
      "type": "function"
    },
    {
      "constant": true,
      "inputs": [],
      "name": "wallet",
      "outputs": [
        {
          "name": "",
          "type": "address"
        }
      ],
      "payable": false,
      "stateMutability": "view",
      "type": "function"
    },
    {
      "constant": false,
      "inputs": [],
      "name": "renounceOwnership",
      "outputs": [],
      "payable": false,
      "stateMutability": "nonpayable",
      "type": "function"
    },
    {
      "constant": true,
      "inputs": [],
      "name": "goalReached",
      "outputs": [
        {
          "name": "",
          "type": "bool"
        }
      ],
      "payable": false,
      "stateMutability": "view",
      "type": "function"
    },
    {
      "constant": false,
      "inputs": [
        {
          "name": "_beneficiary",
          "type": "address"
        }
      ],
      "name": "removeFromWhitelist",
      "outputs": [],
      "payable": false,
      "stateMutability": "nonpayable",
      "type": "function"
    },
    {
      "constant": false,
      "inputs": [
        {
          "name": "_beneficiaries",
          "type": "address[]"
        }
      ],
      "name": "addManyToWhitelist",
      "outputs": [],
      "payable": false,
      "stateMutability": "nonpayable",
      "type": "function"
    },
    {
      "constant": true,
      "inputs": [],
      "name": "isFinalized",
      "outputs": [
        {
          "name": "",
          "type": "bool"
        }
      ],
      "payable": false,
      "stateMutability": "view",
      "type": "function"
    },
    {
      "constant": true,
      "inputs": [],
      "name": "owner",
      "outputs": [
        {
          "name": "",
          "type": "address"
        }
      ],
      "payable": false,
      "stateMutability": "view",
      "type": "function"
    },
    {
      "constant": true,
      "inputs": [
        {
          "name": "",
          "type": "address"
        }
      ],
      "name": "whitelist",
      "outputs": [
        {
          "name": "",
          "type": "bool"
        }
      ],
      "payable": false,
      "stateMutability": "view",
      "type": "function"
    },
    {
      "constant": true,
      "inputs": [],
      "name": "investorMinCap",
      "outputs": [
        {
          "name": "",
          "type": "uint256"
        }
      ],
      "payable": false,
      "stateMutability": "view",
      "type": "function"
    },
    {
      "constant": false,
      "inputs": [],
      "name": "claimRefund",
      "outputs": [],
      "payable": false,
      "stateMutability": "nonpayable",
      "type": "function"
    },
    {
      "constant": true,
      "inputs": [],
      "name": "openingTime",
      "outputs": [
        {
          "name": "",
          "type": "uint256"
        }
      ],
      "payable": false,
      "stateMutability": "view",
      "type": "function"
    },
    {
      "constant": true,
      "inputs": [],
      "name": "stage",
      "outputs": [
        {
          "name": "",
          "type": "uint8"
        }
      ],
      "payable": false,
      "stateMutability": "view",
      "type": "function"
    },
    {
      "constant": false,
      "inputs": [
        {
          "name": "_beneficiary",
          "type": "address"
        }
      ],
      "name": "addToWhitelist",
      "outputs": [],
      "payable": false,
      "stateMutability": "nonpayable",
      "type": "function"
    },
    {
      "constant": false,
      "inputs": [
        {
          "name": "_beneficiary",
          "type": "address"
        }
      ],
      "name": "buyTokens",
      "outputs": [],
      "payable": true,
      "stateMutability": "payable",
      "type": "function"
    },
    {
      "constant": true,
      "inputs": [],
      "name": "investorHardCap",
      "outputs": [
        {
          "name": "",
          "type": "uint256"
        }
      ],
      "payable": false,
      "stateMutability": "view",
      "type": "function"
    },
    {
      "constant": false,
      "inputs": [
        {
          "name": "_newOwner",
          "type": "address"
        }
      ],
      "name": "transferOwnership",
      "outputs": [],
      "payable": false,
      "stateMutability": "nonpayable",
      "type": "function"
    },
    {
      "constant": true,
      "inputs": [],
      "name": "vault",
      "outputs": [
        {
          "name": "",
          "type": "address"
        }
      ],
      "payable": false,
      "stateMutability": "view",
      "type": "function"
    },
    {
      "constant": true,
      "inputs": [],
      "name": "token",
      "outputs": [
        {
          "name": "",
          "type": "address"
        }
      ],
      "payable": false,
      "stateMutability": "view",
      "type": "function"
    },
    {
      "inputs": [
        {
          "name": "_rate",
          "type": "uint256"
        },
        {
          "name": "_wallet",
          "type": "address"
        },
        {
          "name": "_token",
          "type": "address"
        },
        {
          "name": "_openingTime",
          "type": "uint256"
        },
        {
          "name": "_closingTime",
          "type": "uint256"
        },
        {
          "name": "_hardCap",
          "type": "uint256"
        },
        {
          "name": "_investorMinCap",
          "type": "uint256"
        },
        {
          "name": "_investorHardCap",
          "type": "uint256"
        },
        {
          "name": "_goal",
          "type": "uint256"
        }
      ],
      "payable": false,
      "stateMutability": "nonpayable",
      "type": "constructor"
    },
    {
      "payable": true,
      "stateMutability": "payable",
      "type": "fallback"
    },
    {
      "anonymous": false,
      "inputs": [],
      "name": "Finalized",
      "type": "event"
    },
    {
      "anonymous": false,
      "inputs": [
        {
          "indexed": true,
          "name": "previousOwner",
          "type": "address"
        }
      ],
      "name": "OwnershipRenounced",
      "type": "event"
    },
    {
      "anonymous": false,
      "inputs": [
        {
          "indexed": true,
          "name": "previousOwner",
          "type": "address"
        },
        {
          "indexed": true,
          "name": "newOwner",
          "type": "address"
        }
      ],
      "name": "OwnershipTransferred",
      "type": "event"
    },
    {
      "anonymous": false,
      "inputs": [
        {
          "indexed": true,
          "name": "purchaser",
          "type": "address"
        },
        {
          "indexed": true,
          "name": "beneficiary",
          "type": "address"
        },
        {
          "indexed": false,
          "name": "value",
          "type": "uint256"
        },
        {
          "indexed": false,
          "name": "amount",
          "type": "uint256"
        }
      ],
      "name": "TokenPurchase",
      "type": "event"
    },
    {
      "constant": true,
      "inputs": [
        {
          "name": "_beneficiary",
          "type": "address"
        }
      ],
      "name": "getUserContribution",
      "outputs": [
        {
          "name": "",
          "type": "uint256"
        }
      ],
      "payable": false,
      "stateMutability": "view",
      "type": "function"
    },
    {
      "constant": false,
      "inputs": [
        {
          "name": "_stage",
          "type": "uint256"
        }
      ],
      "name": "setCrowdsaleStage",
      "outputs": [],
      "payable": false,
      "stateMutability": "nonpayable",
      "type": "function"
    }
  ],
  "bytecode": "0x60806040526009805460ff19908116909155600f8054909116905534801561002657600080fd5b506040516101208061164483398101604090815281516020830151918301516060840151608085015160a086015160c087015160e088015161010090980151959794959394929391929091808487878c8c8c6000831161008557600080fd5b600160a060020a038216151561009a57600080fd5b600160a060020a03811615156100af57600080fd5b60029290925560018054600160a060020a03928316600160a060020a03199182161790915560008054929093169116179055428210156100ee57600080fd5b818110156100fb57600080fd5b6004919091556005556000811161011157600080fd5b60065560078054600160a060020a031916331790556000811161013357600080fd5b600154600160a060020a03166101476101ae565b600160a060020a03909116815260405190819003602001906000f080158015610174573d6000803e3d6000fd5b50600b8054600160a060020a031916600160a060020a0392909216919091179055600a5550600c91909155600d55506101be945050505050565b60405161069080610fb483390190565b610de7806101cd6000396000f30060806040526004361061015b5763ffffffff60e060020a6000350416631515bc2b81146101665780632c4e722e1461018f578063355274ea146101b657806340193883146101cb5780634042b66f146101e057806342e94c90146101f55780634b6753bc146102165780634bb278f31461022b5780634f93594514610240578063521eb27314610255578063715018a6146102865780637d3d65221461029b5780638ab1d681146102b05780638c10671c146102d15780638d4e4083146102f15780638da5cb5b146103065780639b19251a1461031b578063a997f82f1461033c578063b25d7f5414610354578063b5545a3c14610369578063b7a8807c1461037e578063bb8b2b4714610393578063c040e6b8146103b4578063e43252d7146103ed578063ec8ac4d81461040e578063ed5db87414610422578063f2fde38b14610437578063fbfa77cf14610458578063fc0c546a1461046d575b61016433610482565b005b34801561017257600080fd5b5061017b610524565b604080519115158252519081900360200190f35b34801561019b57600080fd5b506101a461052c565b60408051918252519081900360200190f35b3480156101c257600080fd5b506101a4610532565b3480156101d757600080fd5b506101a4610538565b3480156101ec57600080fd5b506101a461053e565b34801561020157600080fd5b506101a4600160a060020a0360043516610544565b34801561022257600080fd5b506101a4610556565b34801561023757600080fd5b5061016461055c565b34801561024c57600080fd5b5061017b6105d6565b34801561026157600080fd5b5061026a6105e1565b60408051600160a060020a039092168252519081900360200190f35b34801561029257600080fd5b506101646105f0565b3480156102a757600080fd5b5061017b61065e565b3480156102bc57600080fd5b50610164600160a060020a0360043516610669565b3480156102dd57600080fd5b5061016460048035602481019101356106a1565b3480156102fd57600080fd5b5061017b610712565b34801561031257600080fd5b5061026a61071b565b34801561032757600080fd5b5061017b600160a060020a036004351661072a565b34801561034857600080fd5b5061016460043561073f565b34801561036057600080fd5b506101a46107c9565b34801561037557600080fd5b506101646107cf565b34801561038a57600080fd5b506101a4610871565b34801561039f57600080fd5b506101a4600160a060020a0360043516610877565b3480156103c057600080fd5b506103c9610892565b604051808260018111156103d957fe5b60ff16815260200191505060405180910390f35b3480156103f957600080fd5b50610164600160a060020a036004351661089b565b610164600160a060020a0360043516610482565b34801561042e57600080fd5b506101a46108d6565b34801561044357600080fd5b50610164600160a060020a03600435166108dc565b34801561046457600080fd5b5061026a6108fc565b34801561047957600080fd5b5061026a61090b565b34600061048f838361091a565b61049882610994565b6003549091506104ae908363ffffffff6109b116565b6003556104bb83826109be565b60408051838152602081018390528151600160a060020a0386169233927f623b3804fa71d67900d064613da8f94b9617215ee90799290593e1745087ad18929081900390910190a361050d83836109c8565b6105156109cc565b61051f83836109c8565b505050565b600554421190565b60025481565b60065481565b600a5481565b60035481565b600e6020526000908152604090205481565b60055481565b600754600160a060020a0316331461057357600080fd5b60095460ff161561058357600080fd5b61058b610524565b151561059657600080fd5b61059e610a4d565b6040517f6823b073d48d6e3a7d385eeb601452d680e74bb46afe3255a7d778f3a9b1768190600090a16009805460ff19166001179055565b600654600354101590565b600154600160a060020a031681565b600754600160a060020a0316331461060757600080fd5b600754604051600160a060020a03909116907ff8df31144d9c2f0f6b59d69b8b98abd5459d07f2742c4df920b25aae33c6482090600090a26007805473ffffffffffffffffffffffffffffffffffffffff19169055565b600a54600354101590565b600754600160a060020a0316331461068057600080fd5b600160a060020a03166000908152600860205260409020805460ff19169055565b600754600090600160a060020a031633146106bb57600080fd5b5060005b8181101561051f576001600860008585858181106106d957fe5b60209081029290920135600160a060020a0316835250810191909152604001600020805460ff19169115159190911790556001016106bf565b60095460ff1681565b600754600160a060020a031681565b60086020526000908152604090205460ff1681565b600754600160a060020a0316331461075657600080fd5b80151561076c57600f805460ff19169055610783565b806001141561078357600f805460ff191660011790555b6000600f5460ff16600181111561079657fe5b14156107a7576101f46002556107c6565b6001600f5460ff1660018111156107ba57fe5b14156107c65760fa6002555b50565b600c5481565b60095460ff1615156107e057600080fd5b6107e861065e565b156107f257600080fd5b600b54604080517ffa89401a0000000000000000000000000000000000000000000000000000000081523360048201529051600160a060020a039092169163fa89401a9160248082019260009290919082900301818387803b15801561085757600080fd5b505af115801561086b573d6000803e3d6000fd5b50505050565b60045481565b600160a060020a03166000908152600e602052604090205490565b600f5460ff1681565b600754600160a060020a031633146108b257600080fd5b600160a060020a03166000908152600860205260409020805460ff19166001179055565b600d5481565b600754600160a060020a031633146108f357600080fd5b6107c681610ad7565b600b54600160a060020a031681565b600054600160a060020a031681565b6000806109278484610b55565b600160a060020a0384166000908152600e60205260409020549150610952828463ffffffff6109b116565b9050600c5481101580156109685750600d548111155b151561097357600080fd5b600160a060020a039093166000908152600e60205260409020929092555050565b60006109ab60025483610b8890919063ffffffff16565b92915050565b818101828110156109ab57fe5b6109c88282610bb1565b5050565b600b54604080517ff340fa010000000000000000000000000000000000000000000000000000000081523360048201529051600160a060020a039092169163f340fa01913491602480830192600092919082900301818588803b158015610a3257600080fd5b505af1158015610a46573d6000803e3d6000fd5b5050505050565b610a5561065e565b15610acd5760008054604080517f3f4ba83a0000000000000000000000000000000000000000000000000000000081529051600160a060020a0390921692633f4ba83a9260048084019382900301818387803b158015610ab457600080fd5b505af1158015610ac8573d6000803e3d6000fd5b505050505b610ad5610c5a565b565b600160a060020a0381161515610aec57600080fd5b600754604051600160a060020a038084169216907f8be0079c531659141344cd1fd0a4f28419497f9722a3daafe3b4186f6b6457e090600090a36007805473ffffffffffffffffffffffffffffffffffffffff1916600160a060020a0392909216919091179055565b600160a060020a038216600090815260086020526040902054829060ff161515610b7e57600080fd5b61051f8383610d4b565b6000821515610b99575060006109ab565b50818102818382811515610ba957fe5b04146109ab57fe5b60008054604080517f40c10f19000000000000000000000000000000000000000000000000000000008152600160a060020a03868116600483015260248201869052915191909216926340c10f1992604480820193602093909283900390910190829087803b158015610c2357600080fd5b505af1158015610c37573d6000803e3d6000fd5b505050506040513d6020811015610c4d57600080fd5b505115156109c857600080fd5b610c6261065e565b15610cd757600b60009054906101000a9004600160a060020a0316600160a060020a03166343d726d66040518163ffffffff1660e060020a028152600401600060405180830381600087803b158015610cba57600080fd5b505af1158015610cce573d6000803e3d6000fd5b50505050610d43565b600b60009054906101000a9004600160a060020a0316600160a060020a0316638c52dc416040518163ffffffff1660e060020a028152600401600060405180830381600087803b158015610d2a57600080fd5b505af1158015610d3e573d6000803e3d6000fd5b505050505b610ad5610ad5565b610d558282610d76565b600654600354610d6b908363ffffffff6109b116565b11156109c857600080fd5b6004544210158015610d8a57506005544211155b1515610d9557600080fd5b6109c88282600160a060020a0382161515610daf57600080fd5b8015156109c857600080fd00a165627a7a723058203974aa02fc2b9b16298de23b0daa3ea51fa1701ec23e5f4d0cf1b626dc463c7c0029608060405234801561001057600080fd5b50604051602080610690833981016040525160008054600160a060020a03191633179055600160a060020a038116151561004957600080fd5b60028054600160a060020a031916600160a060020a03929092169190911760a060020a60ff021916905561060e806100826000396000f3006080604052600436106100a35763ffffffff7c010000000000000000000000000000000000000000000000000000000060003504166343d726d681146100a8578063521eb273146100bf578063715018a6146100f05780638c52dc41146101055780638da5cb5b1461011a578063c19d93fb1461012f578063cb13cddb14610168578063f2fde38b1461019b578063f340fa01146101bc578063fa89401a146101d0575b600080fd5b3480156100b457600080fd5b506100bd6101f1565b005b3480156100cb57600080fd5b506100d46102c7565b60408051600160a060020a039092168252519081900360200190f35b3480156100fc57600080fd5b506100bd6102d6565b34801561011157600080fd5b506100bd610342565b34801561012657600080fd5b506100d46103cc565b34801561013b57600080fd5b506101446103db565b6040518082600281111561015457fe5b60ff16815260200191505060405180910390f35b34801561017457600080fd5b50610189600160a060020a03600435166103eb565b60408051918252519081900360200190f35b3480156101a757600080fd5b506100bd600160a060020a03600435166103fd565b6100bd600160a060020a036004351661041d565b3480156101dc57600080fd5b506100bd600160a060020a036004351661049d565b600054600160a060020a0316331461020857600080fd5b60006002805460a060020a900460ff169081111561022257fe5b1461022c57600080fd5b6002805474ff00000000000000000000000000000000000000001916740200000000000000000000000000000000000000001790556040517f1cdde67b72a90f19919ac732a437ac2f7a10fc128d28c2a6e525d89ce5cd9d3a90600090a1600254604051600160a060020a0390911690303180156108fc02916000818181858888f193505050501580156102c4573d6000803e3d6000fd5b50565b600254600160a060020a031681565b600054600160a060020a031633146102ed57600080fd5b60008054604051600160a060020a03909116917ff8df31144d9c2f0f6b59d69b8b98abd5459d07f2742c4df920b25aae33c6482091a26000805473ffffffffffffffffffffffffffffffffffffffff19169055565b600054600160a060020a0316331461035957600080fd5b60006002805460a060020a900460ff169081111561037357fe5b1461037d57600080fd5b6002805474ff0000000000000000000000000000000000000000191660a060020a1790556040517f599d8e5a83cffb867d051598c4d70e805d59802d8081c1c7d6dffc5b6aca2b8990600090a1565b600054600160a060020a031681565b60025460a060020a900460ff1681565b60016020526000908152604090205481565b600054600160a060020a0316331461041457600080fd5b6102c481610552565b600054600160a060020a0316331461043457600080fd5b60006002805460a060020a900460ff169081111561044e57fe5b1461045857600080fd5b600160a060020a038116600090815260016020526040902054610481903463ffffffff6105cf16565b600160a060020a03909116600090815260016020526040902055565b600060016002805460a060020a900460ff16908111156104b957fe5b146104c357600080fd5b50600160a060020a038116600081815260016020526040808220805490839055905190929183156108fc02918491818181858888f1935050505015801561050e573d6000803e3d6000fd5b50604080518281529051600160a060020a038416917fd7dee2702d63ad89917b6a4da9981c90c4d24f8c2bdfd64c604ecae57d8d0651919081900360200190a25050565b600160a060020a038116151561056757600080fd5b60008054604051600160a060020a03808516939216917f8be0079c531659141344cd1fd0a4f28419497f9722a3daafe3b4186f6b6457e091a36000805473ffffffffffffffffffffffffffffffffffffffff1916600160a060020a0392909216919091179055565b818101828110156105dc57fe5b929150505600a165627a7a72305820bedcec8e66341ed53ef3c6633e9ae6bcf0911b003b6577021cf5655cc204860b0029",
  "source": "pragma solidity 0.4.24;\n\nimport \"openzeppelin-solidity/contracts/token/ERC20/ERC20.sol\";\nimport \"openzeppelin-solidity/contracts/token/ERC20/PausableToken.sol\";\nimport \"openzeppelin-solidity/contracts/crowdsale/Crowdsale.sol\";\nimport \"openzeppelin-solidity/contracts/crowdsale/distribution/RefundableCrowdsale.sol\";\nimport \"openzeppelin-solidity/contracts/crowdsale/emission/MintedCrowdsale.sol\";\nimport \"openzeppelin-solidity/contracts/crowdsale/validation/TimedCrowdsale.sol\";\nimport \"openzeppelin-solidity/contracts/crowdsale/validation/CappedCrowdsale.sol\";\nimport \"openzeppelin-solidity/contracts/crowdsale/validation/WhitelistedCrowdsale.sol\";\n\ncontract ContraCoinCrowdsale is Crowdsale, TimedCrowdsale, CappedCrowdsale, MintedCrowdsale, WhitelistedCrowdsale, RefundableCrowdsale {\n\n  // Track investor contributions\n  uint256 public investorMinCap;\n  uint256 public investorHardCap;\n  mapping(address => uint256) public contributions;\n\n  // Crowdsale Stages\n  enum CrowdsaleStage { PreICO, ICO }\n  // Default to presale stage\n  CrowdsaleStage public stage = CrowdsaleStage.PreICO;\n\n  constructor(\n    uint    _rate,\n    address _wallet,\n    ERC20   _token,\n    uint256 _openingTime,\n    uint256 _closingTime,\n    uint256 _hardCap,\n    uint256 _investorMinCap,\n    uint256 _investorHardCap,\n    uint256 _goal\n  )\n    Crowdsale(_rate, _wallet, _token)\n    TimedCrowdsale(_openingTime, _closingTime)\n    CappedCrowdsale(_hardCap)\n    RefundableCrowdsale(_goal)\n    public\n  {\n    investorMinCap  = _investorMinCap;\n    investorHardCap = _investorHardCap;\n  }\n\n  /**\n  * @dev Extend parent behavior requiring purchase to respect investor min/max funding cap.\n  * @param _beneficiary Token purchaser\n  * @param _weiAmount Amount of wei contributed\n  */\n  function _preValidatePurchase(\n    address _beneficiary,\n    uint256 _weiAmount\n  )\n    internal\n  {\n    super._preValidatePurchase(_beneficiary, _weiAmount);\n    // TODO: Is this gas efficient?\n    uint256 _existingContribution = contributions[_beneficiary];\n    uint256 _newContribution = _existingContribution.add(_weiAmount);\n    require(_newContribution >= investorMinCap && _newContribution <= investorHardCap);\n    contributions[_beneficiary] = _newContribution;\n  }\n\n  /**\n  * @dev Returns the amount contributed so far by a sepecific user.\n  * @param _beneficiary Address of contributor\n  * @return User contribution so far\n  */\n  function getUserContribution(address _beneficiary)\n    public view returns (uint256)\n  {\n    return contributions[_beneficiary];\n  }\n\n  /**\n  * @dev Allows admin to update the crowdsale stage and rate\n  * @param _stage Crowdsale stage\n  */\n  function setCrowdsaleStage(uint _stage) public onlyOwner {\n    if (uint(CrowdsaleStage.PreICO) == _stage) {\n      stage = CrowdsaleStage.PreICO;\n    } else if (uint(CrowdsaleStage.ICO) == _stage) {\n      stage = CrowdsaleStage.ICO;\n    }\n\n    if (stage == CrowdsaleStage.PreICO) {\n      rate = 500;\n    } else if (stage == CrowdsaleStage.ICO) {\n      rate = 250;\n    }\n  }\n\n  /**\n   * @dev enables token transfers, called when owner calls finalize()\n   */\n  function finalization() internal {\n    if (goalReached()) {\n      PausableToken(token).unpause();\n    }\n\n    super.finalization();\n  }\n}\n",
  "sourcePath": "/Users/gregory/code/contracoin_crowdsale/contracts/ContraCoinCrowdsale.sol",
  "compiler": {
    "name": "solc",
    "version": "0.4.24+commit.e67f0147.Emscripten.clang"
  },
  "schemaVersion": "2.0.0",
  "updatedAt": "2018-07-23T18:58:08.089Z"
}