{
  "contractName": "ContraCoinCrowdsale",
  "abi": [
    {
      "constant": true,
      "inputs": [],
      "name": "rate",
      "outputs": [
        {
          "name": "",
          "type": "uint256"
        }
      ],
      "payable": false,
      "stateMutability": "view",
      "type": "function"
    },
    {
      "constant": true,
      "inputs": [],
      "name": "cap",
      "outputs": [
        {
          "name": "",
          "type": "uint256"
        }
      ],
      "payable": false,
      "stateMutability": "view",
      "type": "function"
    },
    {
      "constant": true,
      "inputs": [],
      "name": "weiRaised",
      "outputs": [
        {
          "name": "",
          "type": "uint256"
        }
      ],
      "payable": false,
      "stateMutability": "view",
      "type": "function"
    },
    {
      "constant": true,
      "inputs": [],
      "name": "capReached",
      "outputs": [
        {
          "name": "",
          "type": "bool"
        }
      ],
      "payable": false,
      "stateMutability": "view",
      "type": "function"
    },
    {
      "constant": true,
      "inputs": [],
      "name": "wallet",
      "outputs": [
        {
          "name": "",
          "type": "address"
        }
      ],
      "payable": false,
      "stateMutability": "view",
      "type": "function"
    },
    {
      "constant": false,
      "inputs": [
        {
          "name": "_beneficiary",
          "type": "address"
        }
      ],
      "name": "buyTokens",
      "outputs": [],
      "payable": true,
      "stateMutability": "payable",
      "type": "function"
    },
    {
      "constant": true,
      "inputs": [],
      "name": "token",
      "outputs": [
        {
          "name": "",
          "type": "address"
        }
      ],
      "payable": false,
      "stateMutability": "view",
      "type": "function"
    },
    {
      "inputs": [
        {
          "name": "_rate",
          "type": "uint256"
        },
        {
          "name": "_wallet",
          "type": "address"
        },
        {
          "name": "_token",
          "type": "address"
        },
        {
          "name": "_cap",
          "type": "uint256"
        }
      ],
      "payable": false,
      "stateMutability": "nonpayable",
      "type": "constructor"
    },
    {
      "payable": true,
      "stateMutability": "payable",
      "type": "fallback"
    },
    {
      "anonymous": false,
      "inputs": [
        {
          "indexed": true,
          "name": "purchaser",
          "type": "address"
        },
        {
          "indexed": true,
          "name": "beneficiary",
          "type": "address"
        },
        {
          "indexed": false,
          "name": "value",
          "type": "uint256"
        },
        {
          "indexed": false,
          "name": "amount",
          "type": "uint256"
        }
      ],
      "name": "TokenPurchase",
      "type": "event"
    }
  ],
  "bytecode": "0x608060405234801561001057600080fd5b506040516080806104ba8339810160409081528151602083015191830151606090930151909290808484846000831161004857600080fd5b600160a060020a038216151561005d57600080fd5b600160a060020a038116151561007257600080fd5b60029290925560018054600160a060020a03928316600160a060020a0319918216179091556000805492909316911617815581116100af57600080fd5b600455505050506103f5806100c56000396000f3006080604052600436106100825763ffffffff7c01000000000000000000000000000000000000000000000000000000006000350416632c4e722e811461008d578063355274ea146100b45780634042b66f146100c95780634f935945146100de578063521eb27314610107578063ec8ac4d814610138578063fc0c546a1461014c575b61008b33610161565b005b34801561009957600080fd5b506100a2610203565b60408051918252519081900360200190f35b3480156100c057600080fd5b506100a2610209565b3480156100d557600080fd5b506100a261020f565b3480156100ea57600080fd5b506100f3610215565b604080519115158252519081900360200190f35b34801561011357600080fd5b5061011c610220565b60408051600160a060020a039092168252519081900360200190f35b61008b600160a060020a0360043516610161565b34801561015857600080fd5b5061011c61022f565b34600061016e838361023e565b6101778261026d565b60035490915061018d908363ffffffff61028a16565b60035561019a8382610297565b60408051838152602081018390528151600160a060020a0386169233927f623b3804fa71d67900d064613da8f94b9617215ee90799290593e1745087ad18929081900390910190a36101ec8383610269565b6101f46102a1565b6101fe8383610269565b505050565b60025481565b60045481565b60035481565b600454600354101590565b600154600160a060020a031681565b600054600160a060020a031681565b61024882826102dd565b60045460035461025e908363ffffffff61028a16565b111561026957600080fd5b5050565b6000610284600254836102fe90919063ffffffff16565b92915050565b8181018281101561028457fe5b6102698282610327565b600154604051600160a060020a03909116903480156108fc02916000818181858888f193505050501580156102da573d6000803e3d6000fd5b50565b600160a060020a03821615156102f257600080fd5b80151561026957600080fd5b600082151561030f57506000610284565b5081810281838281151561031f57fe5b041461028457fe5b60008054604080517fa9059cbb000000000000000000000000000000000000000000000000000000008152600160a060020a038681166004830152602482018690529151919092169263a9059cbb92604480820193602093909283900390910190829087803b15801561039957600080fd5b505af11580156103ad573d6000803e3d6000fd5b505050506040513d60208110156103c357600080fd5b505050505600a165627a7a723058209660bd083433fbee217a3be2c17e67c2034963b51a68ba6bad3f0f0e3afc420e0029",
  "source": "pragma solidity 0.4.24;\n\nimport \"openzeppelin-solidity/contracts/token/ERC20/ERC20.sol\";\nimport \"openzeppelin-solidity/contracts/crowdsale/Crowdsale.sol\";\nimport \"openzeppelin-solidity/contracts/crowdsale/validation/CappedCrowdsale.sol\";\n// import \"openzeppelin-solidity/contracts/crowdsale/RefundableCrowdsale.sol\";\n// import \"openzeppelin-solidity/contracts/crowdsale/MintableCrowdsale.sol\";\n\ncontract ContraCoinCrowdsale is Crowdsale, CappedCrowdsale {\n\n    constructor(\n        uint _rate,\n        address _wallet,\n        ERC20 _token,\n        uint256 _cap\n    )\n        Crowdsale(_rate, _wallet, _token)\n        CappedCrowdsale(_cap)\n        public\n    {\n\n    }\n}\n",
  "sourcePath": "/Users/gregory/code/contracoin_crowdsale/contracts/ContraCoinCrowdsale.sol",
  "compiler": {
    "name": "solc",
    "version": "0.4.24+commit.e67f0147.Emscripten.clang"
  },
  "schemaVersion": "2.0.0",
  "updatedAt": "2018-07-17T17:45:38.327Z"
}