{
  "contractName": "ContraCoinCrowdsale",
  "abi": [
    {
      "constant": true,
      "inputs": [],
      "name": "rate",
      "outputs": [
        {
          "name": "",
          "type": "uint256"
        }
      ],
      "payable": false,
      "stateMutability": "view",
      "type": "function"
    },
    {
      "constant": true,
      "inputs": [],
      "name": "cap",
      "outputs": [
        {
          "name": "",
          "type": "uint256"
        }
      ],
      "payable": false,
      "stateMutability": "view",
      "type": "function"
    },
    {
      "constant": true,
      "inputs": [],
      "name": "weiRaised",
      "outputs": [
        {
          "name": "",
          "type": "uint256"
        }
      ],
      "payable": false,
      "stateMutability": "view",
      "type": "function"
    },
    {
      "constant": true,
      "inputs": [
        {
          "name": "",
          "type": "address"
        }
      ],
      "name": "contributions",
      "outputs": [
        {
          "name": "",
          "type": "uint256"
        }
      ],
      "payable": false,
      "stateMutability": "view",
      "type": "function"
    },
    {
      "constant": true,
      "inputs": [],
      "name": "capReached",
      "outputs": [
        {
          "name": "",
          "type": "bool"
        }
      ],
      "payable": false,
      "stateMutability": "view",
      "type": "function"
    },
    {
      "constant": true,
      "inputs": [],
      "name": "wallet",
      "outputs": [
        {
          "name": "",
          "type": "address"
        }
      ],
      "payable": false,
      "stateMutability": "view",
      "type": "function"
    },
    {
      "constant": false,
      "inputs": [],
      "name": "renounceOwnership",
      "outputs": [],
      "payable": false,
      "stateMutability": "nonpayable",
      "type": "function"
    },
    {
      "constant": true,
      "inputs": [],
      "name": "owner",
      "outputs": [
        {
          "name": "",
          "type": "address"
        }
      ],
      "payable": false,
      "stateMutability": "view",
      "type": "function"
    },
    {
      "constant": true,
      "inputs": [],
      "name": "investorMinCap",
      "outputs": [
        {
          "name": "",
          "type": "uint256"
        }
      ],
      "payable": false,
      "stateMutability": "view",
      "type": "function"
    },
    {
      "constant": true,
      "inputs": [],
      "name": "stage",
      "outputs": [
        {
          "name": "",
          "type": "uint8"
        }
      ],
      "payable": false,
      "stateMutability": "view",
      "type": "function"
    },
    {
      "constant": false,
      "inputs": [
        {
          "name": "_beneficiary",
          "type": "address"
        }
      ],
      "name": "buyTokens",
      "outputs": [],
      "payable": true,
      "stateMutability": "payable",
      "type": "function"
    },
    {
      "constant": true,
      "inputs": [],
      "name": "investorHardCap",
      "outputs": [
        {
          "name": "",
          "type": "uint256"
        }
      ],
      "payable": false,
      "stateMutability": "view",
      "type": "function"
    },
    {
      "constant": false,
      "inputs": [
        {
          "name": "_newOwner",
          "type": "address"
        }
      ],
      "name": "transferOwnership",
      "outputs": [],
      "payable": false,
      "stateMutability": "nonpayable",
      "type": "function"
    },
    {
      "constant": true,
      "inputs": [],
      "name": "token",
      "outputs": [
        {
          "name": "",
          "type": "address"
        }
      ],
      "payable": false,
      "stateMutability": "view",
      "type": "function"
    },
    {
      "inputs": [
        {
          "name": "_rate",
          "type": "uint256"
        },
        {
          "name": "_wallet",
          "type": "address"
        },
        {
          "name": "_token",
          "type": "address"
        },
        {
          "name": "_hardCap",
          "type": "uint256"
        },
        {
          "name": "_investorMinCap",
          "type": "uint256"
        },
        {
          "name": "_investorHardCap",
          "type": "uint256"
        }
      ],
      "payable": false,
      "stateMutability": "nonpayable",
      "type": "constructor"
    },
    {
      "payable": true,
      "stateMutability": "payable",
      "type": "fallback"
    },
    {
      "anonymous": false,
      "inputs": [
        {
          "indexed": true,
          "name": "purchaser",
          "type": "address"
        },
        {
          "indexed": true,
          "name": "beneficiary",
          "type": "address"
        },
        {
          "indexed": false,
          "name": "value",
          "type": "uint256"
        },
        {
          "indexed": false,
          "name": "amount",
          "type": "uint256"
        }
      ],
      "name": "TokenPurchase",
      "type": "event"
    },
    {
      "anonymous": false,
      "inputs": [
        {
          "indexed": true,
          "name": "previousOwner",
          "type": "address"
        }
      ],
      "name": "OwnershipRenounced",
      "type": "event"
    },
    {
      "anonymous": false,
      "inputs": [
        {
          "indexed": true,
          "name": "previousOwner",
          "type": "address"
        },
        {
          "indexed": true,
          "name": "newOwner",
          "type": "address"
        }
      ],
      "name": "OwnershipTransferred",
      "type": "event"
    },
    {
      "constant": true,
      "inputs": [
        {
          "name": "_beneficiary",
          "type": "address"
        }
      ],
      "name": "getUserContribution",
      "outputs": [
        {
          "name": "",
          "type": "uint256"
        }
      ],
      "payable": false,
      "stateMutability": "view",
      "type": "function"
    },
    {
      "constant": false,
      "inputs": [
        {
          "name": "value",
          "type": "uint256"
        }
      ],
      "name": "setCrowdsaleStage",
      "outputs": [],
      "payable": false,
      "stateMutability": "nonpayable",
      "type": "function"
    }
  ],
  "bytecode": "0x60806040526009805460ff1916905534801561001a57600080fd5b5060405160c0806108ba83398101604090815281516020830151918301516060840151608085015160a09095015160008054600160a060020a03191633178155939592939192918390879087908790831161007457600080fd5b600160a060020a038216151561008957600080fd5b600160a060020a038116151561009e57600080fd5b60039290925560028054600160a060020a03928316600160a060020a03199182161790915560018054929093169116179055600081116100dd57600080fd5b600555600691909155600755505050506107be806100fc6000396000f3006080604052600436106100e55763ffffffff7c01000000000000000000000000000000000000000000000000000000006000350416632c4e722e81146100f0578063355274ea146101175780634042b66f1461012c57806342e94c90146101415780634f93594514610162578063521eb2731461018b578063715018a6146101bc5780638da5cb5b146101d1578063a997f82f146101e6578063b25d7f54146101fe578063bb8b2b4714610213578063c040e6b814610234578063ec8ac4d81461026d578063ed5db87414610281578063f2fde38b14610296578063fc0c546a146102b7575b6100ee336102cc565b005b3480156100fc57600080fd5b5061010561036e565b60408051918252519081900360200190f35b34801561012357600080fd5b50610105610374565b34801561013857600080fd5b5061010561037a565b34801561014d57600080fd5b50610105600160a060020a0360043516610380565b34801561016e57600080fd5b50610177610392565b604080519115158252519081900360200190f35b34801561019757600080fd5b506101a061039d565b60408051600160a060020a039092168252519081900360200190f35b3480156101c857600080fd5b506100ee6103ac565b3480156101dd57600080fd5b506101a0610418565b3480156101f257600080fd5b506100ee600435610427565b34801561020a57600080fd5b506101056104b0565b34801561021f57600080fd5b50610105600160a060020a03600435166104b6565b34801561024057600080fd5b506102496104d1565b6040518082600181111561025957fe5b60ff16815260200191505060405180910390f35b6100ee600160a060020a03600435166102cc565b34801561028d57600080fd5b506101056104da565b3480156102a257600080fd5b506100ee600160a060020a03600435166104e0565b3480156102c357600080fd5b506101a0610500565b3460006102d9838361050f565b6102e282610589565b6004549091506102f8908363ffffffff6105a616565b60045561030583826105b3565b60408051838152602081018390528151600160a060020a0386169233927f623b3804fa71d67900d064613da8f94b9617215ee90799290593e1745087ad18929081900390910190a361035783836105bd565b61035f6105c1565b61036983836105bd565b505050565b60035481565b60055481565b60045481565b60086020526000908152604090205481565b600554600454101590565b600254600160a060020a031681565b600054600160a060020a031633146103c357600080fd5b60008054604051600160a060020a03909116917ff8df31144d9c2f0f6b59d69b8b98abd5459d07f2742c4df920b25aae33c6482091a26000805473ffffffffffffffffffffffffffffffffffffffff19169055565b600054600160a060020a031681565b600054600160a060020a0316331461043e57600080fd5b801515610454576009805460ff1916905561046b565b806001141561046b576009805460ff191660011790555b600060095460ff16600181111561047e57fe5b141561048e5760056003556104ad565b600160095460ff1660018111156104a157fe5b14156104ad5760026003555b50565b60065481565b600160a060020a031660009081526008602052604090205490565b60095460ff1681565b60075481565b600054600160a060020a031633146104f757600080fd5b6104ad816105fa565b600154600160a060020a031681565b60008061051c8484610677565b600160a060020a0384166000908152600860205260409020549150610547828463ffffffff6105a616565b9050600654811015801561055d57506007548111155b151561056857600080fd5b600160a060020a039093166000908152600860205260409020929092555050565b60006105a0600354836106a290919063ffffffff16565b92915050565b818101828110156105a057fe5b6105bd82826106cb565b5050565b600254604051600160a060020a03909116903480156108fc02916000818181858888f193505050501580156104ad573d6000803e3d6000fd5b600160a060020a038116151561060f57600080fd5b60008054604051600160a060020a03808516939216917f8be0079c531659141344cd1fd0a4f28419497f9722a3daafe3b4186f6b6457e091a36000805473ffffffffffffffffffffffffffffffffffffffff1916600160a060020a0392909216919091179055565b6106818282610771565b600554600454610697908363ffffffff6105a616565b11156105bd57600080fd5b60008215156106b3575060006105a0565b508181028183828115156106c357fe5b04146105a057fe5b600154604080517f40c10f19000000000000000000000000000000000000000000000000000000008152600160a060020a03858116600483015260248201859052915191909216916340c10f199160448083019260209291908290030181600087803b15801561073a57600080fd5b505af115801561074e573d6000803e3d6000fd5b505050506040513d602081101561076457600080fd5b505115156105bd57600080fd5b600160a060020a038216151561078657600080fd5b8015156105bd57600080fd00a165627a7a7230582093d1032c1ce99d6ba2021a80d217c0e89e0425900ee35e9b310a72575098c3ee0029",
  "source": "pragma solidity 0.4.24;\n\nimport \"openzeppelin-solidity/contracts/token/ERC20/ERC20.sol\";\nimport \"openzeppelin-solidity/contracts/crowdsale/Crowdsale.sol\";\nimport \"openzeppelin-solidity/contracts/crowdsale/validation/CappedCrowdsale.sol\";\nimport \"openzeppelin-solidity/contracts/crowdsale/emission/MintedCrowdsale.sol\";\nimport \"openzeppelin-solidity/contracts/ownership/Ownable.sol\";\n// import \"openzeppelin-solidity/contracts/crowdsale/RefundableCrowdsale.sol\";\n\ncontract ContraCoinCrowdsale is Ownable, Crowdsale, CappedCrowdsale, MintedCrowdsale {\n\n    // Track investor contributions\n    uint256 public investorMinCap;\n    uint256 public investorHardCap;\n    mapping(address => uint256) public contributions;\n\n    // Crowdsale Stages\n    enum CrowdsaleStage { PreICO, ICO }\n    // Default to presale stage\n    CrowdsaleStage public stage = CrowdsaleStage.PreICO;\n\n    constructor(\n        uint    _rate,\n        address _wallet,\n        ERC20   _token,\n        uint256 _hardCap,\n        uint256 _investorMinCap,\n        uint256 _investorHardCap\n    )\n        Crowdsale(_rate, _wallet, _token)\n        CappedCrowdsale(_hardCap)\n        public\n    {\n        investorMinCap  = _investorMinCap;\n        investorHardCap = _investorHardCap;\n    }\n\n    /**\n    * @dev Extend parent behavior requiring purchase to respect investor min/max funding cap.\n    * @param _beneficiary Token purchaser\n    * @param _weiAmount Amount of wei contributed\n    */\n    function _preValidatePurchase(\n        address _beneficiary,\n        uint256 _weiAmount\n    )\n        internal\n    {\n        super._preValidatePurchase(_beneficiary, _weiAmount);\n        // TODO: Is this gas efficient?\n        uint256 _existingContribution = contributions[_beneficiary];\n        uint256 _newContribution = _existingContribution.add(_weiAmount);\n        require(_newContribution >= investorMinCap && _newContribution <= investorHardCap);\n        contributions[_beneficiary] = _newContribution;\n    }\n\n    /**\n    * @dev Returns the amount contributed so far by a sepecific user.\n    * @param _beneficiary Address of contributor\n    * @return User contribution so far\n    */\n    function getUserContribution(address _beneficiary)\n        public view returns (uint256)\n    {\n        return contributions[_beneficiary];\n    }\n\n\n  // Change Crowdsale Stage. Available Options: PreICO, ICO\n  function setCrowdsaleStage(uint value) public onlyOwner {\n      if (uint(CrowdsaleStage.PreICO) == value) {\n        stage = CrowdsaleStage.PreICO;\n      } else if (uint(CrowdsaleStage.ICO) == value) {\n        stage = CrowdsaleStage.ICO;\n      }\n\n      if (stage == CrowdsaleStage.PreICO) {\n        rate = 5;\n      } else if (stage == CrowdsaleStage.ICO) {\n        rate = 2;\n      }\n  }\n}\n",
  "sourcePath": "/Users/gregory/code/contracoin_crowdsale/contracts/ContraCoinCrowdsale.sol",
  "compiler": {
    "name": "solc",
    "version": "0.4.24+commit.e67f0147.Emscripten.clang"
  },
  "schemaVersion": "2.0.0",
  "updatedAt": "2018-07-19T14:24:45.206Z"
}