{
  "contractName": "ContraCoinCrowdsale",
  "abi": [
    {
      "constant": true,
      "inputs": [],
      "name": "hasClosed",
      "outputs": [
        {
          "name": "",
          "type": "bool"
        }
      ],
      "payable": false,
      "stateMutability": "view",
      "type": "function"
    },
    {
      "constant": true,
      "inputs": [],
      "name": "rate",
      "outputs": [
        {
          "name": "",
          "type": "uint256"
        }
      ],
      "payable": false,
      "stateMutability": "view",
      "type": "function"
    },
    {
      "constant": true,
      "inputs": [],
      "name": "cap",
      "outputs": [
        {
          "name": "",
          "type": "uint256"
        }
      ],
      "payable": false,
      "stateMutability": "view",
      "type": "function"
    },
    {
      "constant": true,
      "inputs": [],
      "name": "goal",
      "outputs": [
        {
          "name": "",
          "type": "uint256"
        }
      ],
      "payable": false,
      "stateMutability": "view",
      "type": "function"
    },
    {
      "constant": true,
      "inputs": [],
      "name": "weiRaised",
      "outputs": [
        {
          "name": "",
          "type": "uint256"
        }
      ],
      "payable": false,
      "stateMutability": "view",
      "type": "function"
    },
    {
      "constant": true,
      "inputs": [
        {
          "name": "",
          "type": "address"
        }
      ],
      "name": "contributions",
      "outputs": [
        {
          "name": "",
          "type": "uint256"
        }
      ],
      "payable": false,
      "stateMutability": "view",
      "type": "function"
    },
    {
      "constant": true,
      "inputs": [],
      "name": "tokenSalePercentage",
      "outputs": [
        {
          "name": "",
          "type": "uint256"
        }
      ],
      "payable": false,
      "stateMutability": "view",
      "type": "function"
    },
    {
      "constant": true,
      "inputs": [],
      "name": "closingTime",
      "outputs": [
        {
          "name": "",
          "type": "uint256"
        }
      ],
      "payable": false,
      "stateMutability": "view",
      "type": "function"
    },
    {
      "constant": false,
      "inputs": [],
      "name": "finalize",
      "outputs": [],
      "payable": false,
      "stateMutability": "nonpayable",
      "type": "function"
    },
    {
      "constant": true,
      "inputs": [],
      "name": "capReached",
      "outputs": [
        {
          "name": "",
          "type": "bool"
        }
      ],
      "payable": false,
      "stateMutability": "view",
      "type": "function"
    },
    {
      "constant": true,
      "inputs": [],
      "name": "wallet",
      "outputs": [
        {
          "name": "",
          "type": "address"
        }
      ],
      "payable": false,
      "stateMutability": "view",
      "type": "function"
    },
    {
      "constant": true,
      "inputs": [],
      "name": "foundersPercentage",
      "outputs": [
        {
          "name": "",
          "type": "uint256"
        }
      ],
      "payable": false,
      "stateMutability": "view",
      "type": "function"
    },
    {
      "constant": false,
      "inputs": [],
      "name": "renounceOwnership",
      "outputs": [],
      "payable": false,
      "stateMutability": "nonpayable",
      "type": "function"
    },
    {
      "constant": true,
      "inputs": [],
      "name": "goalReached",
      "outputs": [
        {
          "name": "",
          "type": "bool"
        }
      ],
      "payable": false,
      "stateMutability": "view",
      "type": "function"
    },
    {
      "constant": true,
      "inputs": [],
      "name": "foundationPercentage",
      "outputs": [
        {
          "name": "",
          "type": "uint256"
        }
      ],
      "payable": false,
      "stateMutability": "view",
      "type": "function"
    },
    {
      "constant": false,
      "inputs": [
        {
          "name": "_beneficiary",
          "type": "address"
        }
      ],
      "name": "removeFromWhitelist",
      "outputs": [],
      "payable": false,
      "stateMutability": "nonpayable",
      "type": "function"
    },
    {
      "constant": false,
      "inputs": [
        {
          "name": "_beneficiaries",
          "type": "address[]"
        }
      ],
      "name": "addManyToWhitelist",
      "outputs": [],
      "payable": false,
      "stateMutability": "nonpayable",
      "type": "function"
    },
    {
      "constant": true,
      "inputs": [],
      "name": "isFinalized",
      "outputs": [
        {
          "name": "",
          "type": "bool"
        }
      ],
      "payable": false,
      "stateMutability": "view",
      "type": "function"
    },
    {
      "constant": true,
      "inputs": [],
      "name": "owner",
      "outputs": [
        {
          "name": "",
          "type": "address"
        }
      ],
      "payable": false,
      "stateMutability": "view",
      "type": "function"
    },
    {
      "constant": true,
      "inputs": [],
      "name": "partnersFund",
      "outputs": [
        {
          "name": "",
          "type": "address"
        }
      ],
      "payable": false,
      "stateMutability": "view",
      "type": "function"
    },
    {
      "constant": true,
      "inputs": [
        {
          "name": "",
          "type": "address"
        }
      ],
      "name": "whitelist",
      "outputs": [
        {
          "name": "",
          "type": "bool"
        }
      ],
      "payable": false,
      "stateMutability": "view",
      "type": "function"
    },
    {
      "constant": true,
      "inputs": [],
      "name": "foundationFund",
      "outputs": [
        {
          "name": "",
          "type": "address"
        }
      ],
      "payable": false,
      "stateMutability": "view",
      "type": "function"
    },
    {
      "constant": true,
      "inputs": [],
      "name": "investorMinCap",
      "outputs": [
        {
          "name": "",
          "type": "uint256"
        }
      ],
      "payable": false,
      "stateMutability": "view",
      "type": "function"
    },
    {
      "constant": false,
      "inputs": [],
      "name": "claimRefund",
      "outputs": [],
      "payable": false,
      "stateMutability": "nonpayable",
      "type": "function"
    },
    {
      "constant": true,
      "inputs": [],
      "name": "openingTime",
      "outputs": [
        {
          "name": "",
          "type": "uint256"
        }
      ],
      "payable": false,
      "stateMutability": "view",
      "type": "function"
    },
    {
      "constant": true,
      "inputs": [],
      "name": "stage",
      "outputs": [
        {
          "name": "",
          "type": "uint8"
        }
      ],
      "payable": false,
      "stateMutability": "view",
      "type": "function"
    },
    {
      "constant": true,
      "inputs": [],
      "name": "foundersFund",
      "outputs": [
        {
          "name": "",
          "type": "address"
        }
      ],
      "payable": false,
      "stateMutability": "view",
      "type": "function"
    },
    {
      "constant": false,
      "inputs": [
        {
          "name": "_beneficiary",
          "type": "address"
        }
      ],
      "name": "addToWhitelist",
      "outputs": [],
      "payable": false,
      "stateMutability": "nonpayable",
      "type": "function"
    },
    {
      "constant": false,
      "inputs": [
        {
          "name": "_beneficiary",
          "type": "address"
        }
      ],
      "name": "buyTokens",
      "outputs": [],
      "payable": true,
      "stateMutability": "payable",
      "type": "function"
    },
    {
      "constant": true,
      "inputs": [],
      "name": "investorHardCap",
      "outputs": [
        {
          "name": "",
          "type": "uint256"
        }
      ],
      "payable": false,
      "stateMutability": "view",
      "type": "function"
    },
    {
      "constant": false,
      "inputs": [
        {
          "name": "_newOwner",
          "type": "address"
        }
      ],
      "name": "transferOwnership",
      "outputs": [],
      "payable": false,
      "stateMutability": "nonpayable",
      "type": "function"
    },
    {
      "constant": true,
      "inputs": [],
      "name": "partnersPercentage",
      "outputs": [
        {
          "name": "",
          "type": "uint256"
        }
      ],
      "payable": false,
      "stateMutability": "view",
      "type": "function"
    },
    {
      "constant": true,
      "inputs": [],
      "name": "vault",
      "outputs": [
        {
          "name": "",
          "type": "address"
        }
      ],
      "payable": false,
      "stateMutability": "view",
      "type": "function"
    },
    {
      "constant": true,
      "inputs": [],
      "name": "token",
      "outputs": [
        {
          "name": "",
          "type": "address"
        }
      ],
      "payable": false,
      "stateMutability": "view",
      "type": "function"
    },
    {
      "inputs": [
        {
          "name": "_rate",
          "type": "uint256"
        },
        {
          "name": "_wallet",
          "type": "address"
        },
        {
          "name": "_token",
          "type": "address"
        },
        {
          "name": "_openingTime",
          "type": "uint256"
        },
        {
          "name": "_closingTime",
          "type": "uint256"
        },
        {
          "name": "_hardCap",
          "type": "uint256"
        },
        {
          "name": "_goal",
          "type": "uint256"
        },
        {
          "name": "_foundersFund",
          "type": "address"
        },
        {
          "name": "_foundationFund",
          "type": "address"
        },
        {
          "name": "_partnersFund",
          "type": "address"
        },
        {
          "name": "_releaseTime",
          "type": "uint256"
        }
      ],
      "payable": false,
      "stateMutability": "nonpayable",
      "type": "constructor"
    },
    {
      "payable": true,
      "stateMutability": "payable",
      "type": "fallback"
    },
    {
      "anonymous": false,
      "inputs": [],
      "name": "Finalized",
      "type": "event"
    },
    {
      "anonymous": false,
      "inputs": [
        {
          "indexed": true,
          "name": "previousOwner",
          "type": "address"
        }
      ],
      "name": "OwnershipRenounced",
      "type": "event"
    },
    {
      "anonymous": false,
      "inputs": [
        {
          "indexed": true,
          "name": "previousOwner",
          "type": "address"
        },
        {
          "indexed": true,
          "name": "newOwner",
          "type": "address"
        }
      ],
      "name": "OwnershipTransferred",
      "type": "event"
    },
    {
      "anonymous": false,
      "inputs": [
        {
          "indexed": true,
          "name": "purchaser",
          "type": "address"
        },
        {
          "indexed": true,
          "name": "beneficiary",
          "type": "address"
        },
        {
          "indexed": false,
          "name": "value",
          "type": "uint256"
        },
        {
          "indexed": false,
          "name": "amount",
          "type": "uint256"
        }
      ],
      "name": "TokenPurchase",
      "type": "event"
    },
    {
      "constant": true,
      "inputs": [
        {
          "name": "_beneficiary",
          "type": "address"
        }
      ],
      "name": "getUserContribution",
      "outputs": [
        {
          "name": "",
          "type": "uint256"
        }
      ],
      "payable": false,
      "stateMutability": "view",
      "type": "function"
    },
    {
      "constant": false,
      "inputs": [
        {
          "name": "_stage",
          "type": "uint256"
        }
      ],
      "name": "setCrowdsaleStage",
      "outputs": [],
      "payable": false,
      "stateMutability": "nonpayable",
      "type": "function"
    }
  ],
  "bytecode": "0x60806040526009805460ff1990811690915566071afd498d0000600c556802b5e3af16b1880000600d55600f805490911690556046601255600a601381905560148190556015553480156200005357600080fd5b506040516101608062001bc383398101604090815281516020830151918301516060840151608085015160a086015160c087015160e08801516101008901516101208a0151610140909a015197999697959694959394929391929091848689898e8e8e60008311620000c457600080fd5b600160a060020a0382161515620000da57600080fd5b600160a060020a0381161515620000f057600080fd5b60029290925560018054600160a060020a03928316600160a060020a03199182161790915560008054929093169116179055428210156200013057600080fd5b818110156200013e57600080fd5b600491909155600555600081116200015557600080fd5b60065560078054600160a060020a03191633179055600081116200017857600080fd5b600154600160a060020a03166200018e6200022e565b600160a060020a03909116815260405190819003602001906000f080158015620001bc573d6000803e3d6000fd5b50600b8054600160a060020a03928316600160a060020a031991821617909155600a92909255600f80549682166101000261010060a860020a03199097169690961790955560108054948616948216949094179093555060118054919093169116179055506200023f95505050505050565b604051610690806200153383390190565b6112e4806200024f6000396000f3006080604052600436106101a85763ffffffff60e060020a6000350416631515bc2b81146101b35780632c4e722e146101dc578063355274ea1461020357806340193883146102185780634042b66f1461022d57806342e94c901461024257806346daa242146102635780634b6753bc146102785780634bb278f31461028d5780634f935945146102a2578063521eb273146102b757806353c08ea2146102e8578063715018a6146102fd5780637d3d652214610312578063864329e3146103275780638ab1d6811461033c5780638c10671c1461035d5780638d4e40831461037d5780638da5cb5b14610392578063926f0c7b146103a75780639b19251a146103bc578063a3a3382b146103dd578063a997f82f146103f2578063b25d7f541461040a578063b5545a3c1461041f578063b7a8807c14610434578063bb8b2b4714610449578063c040e6b81461046a578063c440008e146104a3578063e43252d7146104b8578063ec8ac4d8146104d9578063ed5db874146104ed578063f2fde38b14610502578063f45b9bed14610523578063fbfa77cf14610538578063fc0c546a1461054d575b6101b133610562565b005b3480156101bf57600080fd5b506101c8610604565b604080519115158252519081900360200190f35b3480156101e857600080fd5b506101f161060c565b60408051918252519081900360200190f35b34801561020f57600080fd5b506101f1610612565b34801561022457600080fd5b506101f1610618565b34801561023957600080fd5b506101f161061e565b34801561024e57600080fd5b506101f1600160a060020a0360043516610624565b34801561026f57600080fd5b506101f1610636565b34801561028457600080fd5b506101f161063c565b34801561029957600080fd5b506101b1610642565b3480156102ae57600080fd5b506101c86106bc565b3480156102c357600080fd5b506102cc6106c7565b60408051600160a060020a039092168252519081900360200190f35b3480156102f457600080fd5b506101f16106d6565b34801561030957600080fd5b506101b16106dc565b34801561031e57600080fd5b506101c861074a565b34801561033357600080fd5b506101f1610755565b34801561034857600080fd5b506101b1600160a060020a036004351661075b565b34801561036957600080fd5b506101b16004803560248101910135610793565b34801561038957600080fd5b506101c8610804565b34801561039e57600080fd5b506102cc61080d565b3480156103b357600080fd5b506102cc61081c565b3480156103c857600080fd5b506101c8600160a060020a036004351661082b565b3480156103e957600080fd5b506102cc610840565b3480156103fe57600080fd5b506101b160043561084f565b34801561041657600080fd5b506101f16108d9565b34801561042b57600080fd5b506101b16108df565b34801561044057600080fd5b506101f1610981565b34801561045557600080fd5b506101f1600160a060020a0360043516610987565b34801561047657600080fd5b5061047f6109a2565b6040518082600181111561048f57fe5b60ff16815260200191505060405180910390f35b3480156104af57600080fd5b506102cc6109ab565b3480156104c457600080fd5b506101b1600160a060020a03600435166109bf565b6101b1600160a060020a0360043516610562565b3480156104f957600080fd5b506101f16109fa565b34801561050e57600080fd5b506101b1600160a060020a0360043516610a00565b34801561052f57600080fd5b506101f1610a20565b34801561054457600080fd5b506102cc610a26565b34801561055957600080fd5b506102cc610a35565b34600061056f8383610a44565b61057882610abe565b60035490915061058e908363ffffffff610adb16565b60035561059b8382610ae8565b60408051838152602081018390528151600160a060020a0386169233927f623b3804fa71d67900d064613da8f94b9617215ee90799290593e1745087ad18929081900390910190a36105ed8383610af2565b6105f5610af6565b6105ff8383610af2565b505050565b600554421190565b60025481565b60065481565b600a5481565b60035481565b600e6020526000908152604090205481565b60125481565b60055481565b600754600160a060020a0316331461065957600080fd5b60095460ff161561066957600080fd5b610671610604565b151561067c57600080fd5b610684610b71565b6040517f6823b073d48d6e3a7d385eeb601452d680e74bb46afe3255a7d778f3a9b1768190600090a16009805460ff19166001179055565b600654600354101590565b600154600160a060020a031681565b60135481565b600754600160a060020a031633146106f357600080fd5b600754604051600160a060020a03909116907ff8df31144d9c2f0f6b59d69b8b98abd5459d07f2742c4df920b25aae33c6482090600090a26007805473ffffffffffffffffffffffffffffffffffffffff19169055565b600a54600354101590565b60145481565b600754600160a060020a0316331461077257600080fd5b600160a060020a03166000908152600860205260409020805460ff19169055565b600754600090600160a060020a031633146107ad57600080fd5b5060005b818110156105ff576001600860008585858181106107cb57fe5b60209081029290920135600160a060020a0316835250810191909152604001600020805460ff19169115159190911790556001016107b1565b60095460ff1681565b600754600160a060020a031681565b601154600160a060020a031681565b60086020526000908152604090205460ff1681565b601054600160a060020a031681565b600754600160a060020a0316331461086657600080fd5b80151561087c57600f805460ff19169055610893565b806001141561089357600f805460ff191660011790555b6000600f5460ff1660018111156108a657fe5b14156108b7576101f46002556108d6565b6001600f5460ff1660018111156108ca57fe5b14156108d65760fa6002555b50565b600c5481565b60095460ff1615156108f057600080fd5b6108f861074a565b1561090257600080fd5b600b54604080517ffa89401a0000000000000000000000000000000000000000000000000000000081523360048201529051600160a060020a039092169163fa89401a9160248082019260009290919082900301818387803b15801561096757600080fd5b505af115801561097b573d6000803e3d6000fd5b50505050565b60045481565b600160a060020a03166000908152600e602052604090205490565b600f5460ff1681565b600f546101009004600160a060020a031681565b600754600160a060020a031633146109d657600080fd5b600160a060020a03166000908152600860205260409020805460ff19166001179055565b600d5481565b600754600160a060020a03163314610a1757600080fd5b6108d681610f3e565b60155481565b600b54600160a060020a031681565b600054600160a060020a031681565b600080610a518484610fbc565b600160a060020a0384166000908152600e60205260409020549150610a7c828463ffffffff610adb16565b9050600c548110158015610a925750600d548111155b1515610a9d57600080fd5b600160a060020a039093166000908152600e60205260409020929092555050565b6000610ad560025483610fef90919063ffffffff16565b92915050565b81810182811015610ad557fe5b610af28282611018565b5050565b6000600f5460ff166001811115610b0957fe5b1415610b4e57600154604051600160a060020a03909116903480156108fc02916000818181858888f19350505050158015610b48573d6000803e3d6000fd5b50610b6f565b6001600f5460ff166001811115610b6157fe5b1415610b6f57610b6f6110c1565b565b6000806000610b7e61074a565b15610f36576000809054906101000a9004600160a060020a0316925082600160a060020a03166318160ddd6040518163ffffffff1660e060020a028152600401602060405180830381600087803b158015610bd857600080fd5b505af1158015610bec573d6000803e3d6000fd5b505050506040513d6020811015610c0257600080fd5b5051601254909250610c2e90606490610c2290859063ffffffff61114216565b9063ffffffff610fef16565b905082600160a060020a03166340c10f19600f60019054906101000a9004600160a060020a0316610c6a6013548561114290919063ffffffff16565b6040518363ffffffff1660e060020a0281526004018083600160a060020a0316600160a060020a0316815260200182815260200192505050602060405180830381600087803b158015610cbc57600080fd5b505af1158015610cd0573d6000803e3d6000fd5b505050506040513d6020811015610ce657600080fd5b5050601054601454600160a060020a03808616926340c10f1992911690610d1490859063ffffffff61114216565b6040518363ffffffff1660e060020a0281526004018083600160a060020a0316600160a060020a0316815260200182815260200192505050602060405180830381600087803b158015610d6657600080fd5b505af1158015610d7a573d6000803e3d6000fd5b505050506040513d6020811015610d9057600080fd5b5050601154601554600160a060020a03808616926340c10f1992911690610dbe90859063ffffffff61114216565b6040518363ffffffff1660e060020a0281526004018083600160a060020a0316600160a060020a0316815260200182815260200192505050602060405180830381600087803b158015610e1057600080fd5b505af1158015610e24573d6000803e3d6000fd5b505050506040513d6020811015610e3a57600080fd5b5050604080517f7d64bcb40000000000000000000000000000000000000000000000000000000081529051600160a060020a03851691637d64bcb49160048083019260209291908290030181600087803b158015610e9757600080fd5b505af1158015610eab573d6000803e3d6000fd5b505050506040513d6020811015610ec157600080fd5b505060008054604080517f3f4ba83a0000000000000000000000000000000000000000000000000000000081529051600160a060020a0390921692633f4ba83a9260048084019382900301818387803b158015610f1d57600080fd5b505af1158015610f31573d6000803e3d6000fd5b505050505b6105ff611157565b600160a060020a0381161515610f5357600080fd5b600754604051600160a060020a038084169216907f8be0079c531659141344cd1fd0a4f28419497f9722a3daafe3b4186f6b6457e090600090a36007805473ffffffffffffffffffffffffffffffffffffffff1916600160a060020a0392909216919091179055565b600160a060020a038216600090815260086020526040902054829060ff161515610fe557600080fd5b6105ff8383611248565b600082151561100057506000610ad5565b5081810281838281151561101057fe5b0414610ad557fe5b60008054604080517f40c10f19000000000000000000000000000000000000000000000000000000008152600160a060020a03868116600483015260248201869052915191909216926340c10f1992604480820193602093909283900390910190829087803b15801561108a57600080fd5b505af115801561109e573d6000803e3d6000fd5b505050506040513d60208110156110b457600080fd5b50511515610af257600080fd5b600b54604080517ff340fa010000000000000000000000000000000000000000000000000000000081523360048201529051600160a060020a039092169163f340fa01913491602480830192600092919082900301818588803b15801561112757600080fd5b505af115801561113b573d6000803e3d6000fd5b5050505050565b6000818381151561114f57fe5b049392505050565b61115f61074a565b156111d457600b60009054906101000a9004600160a060020a0316600160a060020a03166343d726d66040518163ffffffff1660e060020a028152600401600060405180830381600087803b1580156111b757600080fd5b505af11580156111cb573d6000803e3d6000fd5b50505050611240565b600b60009054906101000a9004600160a060020a0316600160a060020a0316638c52dc416040518163ffffffff1660e060020a028152600401600060405180830381600087803b15801561122757600080fd5b505af115801561123b573d6000803e3d6000fd5b505050505b610b6f610b6f565b6112528282611273565b600654600354611268908363ffffffff610adb16565b1115610af257600080fd5b600454421015801561128757506005544211155b151561129257600080fd5b610af28282600160a060020a03821615156112ac57600080fd5b801515610af257600080fd00a165627a7a72305820ebbc38f8d5efdb2b5801758262139d17458c0a9083e5a37df9c64bb5c3ba13bb0029608060405234801561001057600080fd5b50604051602080610690833981016040525160008054600160a060020a03191633179055600160a060020a038116151561004957600080fd5b60028054600160a060020a031916600160a060020a03929092169190911760a060020a60ff021916905561060e806100826000396000f3006080604052600436106100a35763ffffffff7c010000000000000000000000000000000000000000000000000000000060003504166343d726d681146100a8578063521eb273146100bf578063715018a6146100f05780638c52dc41146101055780638da5cb5b1461011a578063c19d93fb1461012f578063cb13cddb14610168578063f2fde38b1461019b578063f340fa01146101bc578063fa89401a146101d0575b600080fd5b3480156100b457600080fd5b506100bd6101f1565b005b3480156100cb57600080fd5b506100d46102c7565b60408051600160a060020a039092168252519081900360200190f35b3480156100fc57600080fd5b506100bd6102d6565b34801561011157600080fd5b506100bd610342565b34801561012657600080fd5b506100d46103cc565b34801561013b57600080fd5b506101446103db565b6040518082600281111561015457fe5b60ff16815260200191505060405180910390f35b34801561017457600080fd5b50610189600160a060020a03600435166103eb565b60408051918252519081900360200190f35b3480156101a757600080fd5b506100bd600160a060020a03600435166103fd565b6100bd600160a060020a036004351661041d565b3480156101dc57600080fd5b506100bd600160a060020a036004351661049d565b600054600160a060020a0316331461020857600080fd5b60006002805460a060020a900460ff169081111561022257fe5b1461022c57600080fd5b6002805474ff00000000000000000000000000000000000000001916740200000000000000000000000000000000000000001790556040517f1cdde67b72a90f19919ac732a437ac2f7a10fc128d28c2a6e525d89ce5cd9d3a90600090a1600254604051600160a060020a0390911690303180156108fc02916000818181858888f193505050501580156102c4573d6000803e3d6000fd5b50565b600254600160a060020a031681565b600054600160a060020a031633146102ed57600080fd5b60008054604051600160a060020a03909116917ff8df31144d9c2f0f6b59d69b8b98abd5459d07f2742c4df920b25aae33c6482091a26000805473ffffffffffffffffffffffffffffffffffffffff19169055565b600054600160a060020a0316331461035957600080fd5b60006002805460a060020a900460ff169081111561037357fe5b1461037d57600080fd5b6002805474ff0000000000000000000000000000000000000000191660a060020a1790556040517f599d8e5a83cffb867d051598c4d70e805d59802d8081c1c7d6dffc5b6aca2b8990600090a1565b600054600160a060020a031681565b60025460a060020a900460ff1681565b60016020526000908152604090205481565b600054600160a060020a0316331461041457600080fd5b6102c481610552565b600054600160a060020a0316331461043457600080fd5b60006002805460a060020a900460ff169081111561044e57fe5b1461045857600080fd5b600160a060020a038116600090815260016020526040902054610481903463ffffffff6105cf16565b600160a060020a03909116600090815260016020526040902055565b600060016002805460a060020a900460ff16908111156104b957fe5b146104c357600080fd5b50600160a060020a038116600081815260016020526040808220805490839055905190929183156108fc02918491818181858888f1935050505015801561050e573d6000803e3d6000fd5b50604080518281529051600160a060020a038416917fd7dee2702d63ad89917b6a4da9981c90c4d24f8c2bdfd64c604ecae57d8d0651919081900360200190a25050565b600160a060020a038116151561056757600080fd5b60008054604051600160a060020a03808516939216917f8be0079c531659141344cd1fd0a4f28419497f9722a3daafe3b4186f6b6457e091a36000805473ffffffffffffffffffffffffffffffffffffffff1916600160a060020a0392909216919091179055565b818101828110156105dc57fe5b929150505600a165627a7a72305820bedcec8e66341ed53ef3c6633e9ae6bcf0911b003b6577021cf5655cc204860b0029",
  "source": "pragma solidity 0.4.24;\n\nimport \"openzeppelin-solidity/contracts/token/ERC20/ERC20.sol\";\nimport \"openzeppelin-solidity/contracts/token/ERC20/PausableToken.sol\";\nimport \"openzeppelin-solidity/contracts/token/ERC20/MintableToken.sol\";\nimport \"openzeppelin-solidity/contracts/token/ERC20/TokenTimelock.sol\";\nimport \"openzeppelin-solidity/contracts/crowdsale/Crowdsale.sol\";\nimport \"openzeppelin-solidity/contracts/crowdsale/distribution/RefundableCrowdsale.sol\";\nimport \"openzeppelin-solidity/contracts/crowdsale/emission/MintedCrowdsale.sol\";\nimport \"openzeppelin-solidity/contracts/crowdsale/validation/TimedCrowdsale.sol\";\nimport \"openzeppelin-solidity/contracts/crowdsale/validation/CappedCrowdsale.sol\";\nimport \"openzeppelin-solidity/contracts/crowdsale/validation/WhitelistedCrowdsale.sol\";\n\ncontract ContraCoinCrowdsale is Crowdsale, TimedCrowdsale, CappedCrowdsale, MintedCrowdsale, WhitelistedCrowdsale, RefundableCrowdsale {\n\n  // Track investor contributions\n  uint256 public investorMinCap = 2000000000000000; // 0.002 ether\n  uint256 public investorHardCap = 50000000000000000000; // 50 ether\n  mapping(address => uint256) public contributions;\n\n  // Crowdsale Stages\n  enum CrowdsaleStage { PreICO, ICO }\n  // Default to presale stage\n  CrowdsaleStage public stage = CrowdsaleStage.PreICO;\n\n  // Token Distribution\n  address public foundersFund;\n  address public foundationFund;\n  address public partnersFund;\n  uint256 public tokenSalePercentage  = 70;\n  uint256 public foundersPercentage   = 10;\n  uint256 public foundationPercentage = 10;\n  uint256 public partnersPercentage   = 10;\n\n  constructor(\n    uint    _rate,\n    address _wallet,\n    ERC20   _token,\n    uint256 _openingTime,\n    uint256 _closingTime,\n    uint256 _hardCap,\n    uint256 _goal,\n    address _foundersFund,\n    address _foundationFund,\n    address _partnersFund,\n    uint256 _releaseTime\n  )\n    Crowdsale(_rate, _wallet, _token)\n    TimedCrowdsale(_openingTime, _closingTime)\n    CappedCrowdsale(_hardCap)\n    RefundableCrowdsale(_goal)\n    public\n  {\n    // require(_goal <= _hardCap);\n    foundersFund = _foundersFund;\n    foundationFund = _foundationFund;\n    partnersFund = _partnersFund;\n  }\n\n  /**\n  * @dev Extend parent behavior requiring purchase to respect investor min/max funding cap.\n  * @param _beneficiary Token purchaser\n  * @param _weiAmount Amount of wei contributed\n  */\n  function _preValidatePurchase(\n    address _beneficiary,\n    uint256 _weiAmount\n  )\n    internal\n  {\n    super._preValidatePurchase(_beneficiary, _weiAmount);\n    // TODO: Is this gas efficient?\n    uint256 _existingContribution = contributions[_beneficiary];\n    uint256 _newContribution = _existingContribution.add(_weiAmount);\n    require(_newContribution >= investorMinCap && _newContribution <= investorHardCap);\n    contributions[_beneficiary] = _newContribution;\n  }\n\n  /**\n  * @dev Returns the amount contributed so far by a sepecific user.\n  * @param _beneficiary Address of contributor\n  * @return User contribution so far\n  */\n  function getUserContribution(address _beneficiary)\n    public view returns (uint256)\n  {\n    return contributions[_beneficiary];\n  }\n\n  /**\n  * @dev Allows admin to update the crowdsale stage and rate\n  * @param _stage Crowdsale stage\n  */\n  function setCrowdsaleStage(uint _stage) public onlyOwner {\n    if (uint(CrowdsaleStage.PreICO) == _stage) {\n      stage = CrowdsaleStage.PreICO;\n    } else if (uint(CrowdsaleStage.ICO) == _stage) {\n      stage = CrowdsaleStage.ICO;\n    }\n\n    if (stage == CrowdsaleStage.PreICO) {\n      rate = 500;\n    } else if (stage == CrowdsaleStage.ICO) {\n      rate = 250;\n    }\n  }\n\n  /**\n   * @dev forwards funds to the wallet during the PreICO stage, then the refund vault during ICO stage\n   */\n  function _forwardFunds() internal {\n    if (stage == CrowdsaleStage.PreICO) {\n      wallet.transfer(msg.value);\n    } else if (stage == CrowdsaleStage.ICO) {\n      super._forwardFunds();\n    }\n  }\n\n  /**\n   * @dev enables token transfers, called when owner calls finalize()\n   */\n  function finalization() internal {\n    if (goalReached()) {\n      // Track amount of tokens minted in the crowdsale\n      MintableToken _mintableToken = MintableToken(token);\n      uint256 _alreadyMinted = _mintableToken.totalSupply();\n\n      // Calculate the final total supply from the amount of tokens minted in the crowdsale\n      // Use the public sale percentage to evaluate this figure\n      uint256 _finalTotalSupply = _alreadyMinted.div(tokenSalePercentage).mul(100);\n\n      // Mint tokens for funds\n      _mintableToken.mint(foundersFund,   _finalTotalSupply.div(foundersPercentage));\n      _mintableToken.mint(foundationFund, _finalTotalSupply.div(foundationPercentage));\n      _mintableToken.mint(partnersFund,   _finalTotalSupply.div(partnersPercentage));\n\n      _mintableToken.finishMinting();\n      PausableToken(token).unpause();\n    }\n\n    super.finalization();\n  }\n}\n",
  "sourcePath": "/Users/gregory/code/contracoin_crowdsale/contracts/ContraCoinCrowdsale.sol",
  "compiler": {
    "name": "solc",
    "version": "0.4.24+commit.e67f0147.Emscripten.clang"
  },
  "schemaVersion": "2.0.0",
  "updatedAt": "2018-07-25T01:16:22.547Z"
}