{
  "contractName": "ContraCoinCrowdsale",
  "abi": [
    {
      "constant": true,
      "inputs": [],
      "name": "cap",
      "outputs": [
        {
          "name": "",
          "type": "uint256"
        }
      ],
      "payable": false,
      "stateMutability": "view",
      "type": "function"
    },
    {
      "inputs": [
        {
          "name": "_cap",
          "type": "uint256"
        }
      ],
      "payable": false,
      "stateMutability": "nonpayable",
      "type": "constructor"
    }
  ],
  "bytecode": "0x608060405234801561001057600080fd5b506040516020806100cc83398101604052516000556099806100336000396000f300608060405260043610603e5763ffffffff7c0100000000000000000000000000000000000000000000000000000000600035041663355274ea81146043575b600080fd5b348015604e57600080fd5b5060556067565b60408051918252519081900360200190f35b600054815600a165627a7a723058202b816e664a8919129181cb9d39e9eff858ea7df5bfedba96c75c72ea1dbe79c30029",
  "source": "pragma solidity 0.4.24;\n\n// import \"./ContraCoin.sol\";\n// import \"openzeppelin-solidity/contracts/crowdsale/validation/CappedCrowdsale.sol\";\n// import \"openzeppelin-solidity/contracts/crowdsale/RefundableCrowdsale.sol\";\n// import \"openzeppelin-solidity/contracts/crowdsale/MintableCrowdsale.sol\";\n\ncontract ContraCoinCrowdsale {\n    uint256 public cap;\n\n    constructor(uint256 _cap) public {\n        cap = _cap;\n    }\n}\n",
  "sourcePath": "/Users/gregory/code/contracoin_crowdsale/contracts/ContraCoinCrowdsale.sol",
  "compiler": {
    "name": "solc",
    "version": "0.4.24+commit.e67f0147.Emscripten.clang"
  },
  "schemaVersion": "2.0.0",
  "updatedAt": "2018-07-17T16:49:30.099Z"
}